:020000040800F2
:10000000FCFF0020A11700009917000099170000BD
:100010009917000099170000991700009917000020
:100020009917000099170000991700009917000010
:100030009917000099170000991700009917000000
:1000400099170000991700009917000099170000F0
:1000500099170000991700009917000099170000E0
:1000600099170000991700009917000099170000D0
:1000700099170000991700009917000099170000C0
:1000800099170000991700009917000099170000B0
:1000900099170000991700009917000099170000A0
:1000A0009917000099170000991700009917000090
:1000B0009917000099170000991700009917000080
:1000C0009917000099170000991700009917000070
:1000D0009917000099170000991700009917000060
:1000E0009917000099170000991700009917000050
:1000F0009917000099170000991700009917000040
:10010000991700009917000099170000991700002F
:10011000991700009917000099170000991700001F
:10012000991700009917000099170000991700000F
:1001300099170000991700009917000099170000FF
:1001400099170000991700009917000099170000EF
:1001500001480068704700BFBC00002083B0CDF8A4
:1001600000E000F0FF031A09104603F00F021346E7
:1001700014E0194A02921FE0184A02921CE0184A41
:10018000029219E0174A029216E0174A029213E00F
:10019000164A029210E0164A02920DE00028E8D0BA
:1001A0000128E9D00228EAD00328EBD00428ECD0BB
:1001B0000528EDD00628EED0012212B29A40ADF803
:1001C000042002980A46BDF8041000F09BFADDF8FE
:1001D00000E003B0704700BF00080140000C014080
:1001E000001001400014014000180140001C0140B3
:1001F0000020014081B0194900EA010108460022AF
:100200000EE0042022E0082020E010201EE0202044
:100210001CE040201AE0802018E040F2001015E0B9
:100220000F498842EDD00F498842ECD00E498842F0
:10023000EBD00E498842EAD00D498842E9D00D49F9
:100240008842E8D00C498842E7D010460B4909683B
:1002500041EA000209490A6001B0704700FCFFFF53
:1002600000080140000C0140001001400014014052
:1002700000180140001C01400020014018100240FD
:1002800082B0CDF800E0034619460191FFF760FF08
:1002900040F2E83100FB01F201990A601F49097838
:1002A000C1F30311C8B21E4909180878C0B21A1D5B
:1002B0001968C140116019490988C1F3022188B247
:1002C000174909180878C0B203F20802191D096815
:1002D000C140116011490988C1F3C22188B2104997
:1002E00009180878C0B203F20C02191D0968C14050
:1002F00011600A490988C1F3813188B20949091896
:100300000978C8B203F2100203F20C010968B1FBCC
:10031000F0F11160DDF800E002B070470410024017
:10032000BB1B0000BC15000081B000F20C02116084
:1003300000F208021368C3F3000202B9F8E700F202
:100340000C02126890B201B07047FFFF81B0CDF887
:1003500000E0012252B23E490A6000F268010B68D7
:100360006FF0006103EA0102144603F00061C90E58
:100370000B4602F00041B1F1004F02D135490A6845
:1003800001E035490A6804F47021090C0E464FF665
:10039000FF7104EA01010D4604F44011B1F5401F5C
:1003A0000DD16FF0706102EA01010E462A490A6818
:1003B0006FF070610A4028490A60324616E004F482
:1003C0008011B1F5801F09D14FF00301B140C9433D
:1003D00002EA010141F070610A4607E0610D09017E
:1003E00005FA01F1C9430A4042F070622BB1610D78
:1003F000090105FA01F10A43FFE704F00041B1F1F8
:10040000004F02D113490A6001E013490A6040F22B
:10041000000A81464FEA8A0109EB01010968B1F13E
:10042000FF3F10D009F134014FEA8A03C918096867
:100430000A4609EB0301096808461146FFF78EFEDC
:100440000AF1010AE6E7DDF800E001B0704700BFFD
:10045000000342421C0001400400014089B0CDF875
:1004600000E0834698B28C46BDF824100A9E04AC86
:10047000ADF80410ADF808002046FFF701FFBDF805
:100480000800BDF80410644CA34512D101256DB2DB
:10049000624C2560624D634C2560634D634C256062
:1004A000634D644C2560644D644C2560079C039447
:1004B00056E0634CA34512D101256DB2614C256015
:1004C000614D584C2560614D584C2560604D594C2C
:1004D0002560604D594C2560069C039440E05E4CBD
:1004E000A34512D101256DB25C4C25605C4D4D4C8D
:1004F00025605C4D4D4C25605B4D4E4C25605B4D41
:100500004E4C2560069C03942AE0594CA34512D119
:1005100001256DB2574C2560574D424C2560574D13
:10052000424C2560564D434C2560564D434C25604A
:10053000069C039414E0544CA34511D101256DB2DF
:10054000524C2560524D374C2560524D374C25603A
:10055000514D384C2560514D384C2560069C039414
:10056000ADF80410ADF808003046FFF7EFFEBDF817
:100570000800BDF804100BF1100500242C600BF1ED
:1005800010052C680C432C600BF10C0500242C602A
:1005900018B140F4806080B2FFE70BF10C052C68C5
:1005A00004432C600BF10C060125346865F34D34CF
:1005B00034600BF10C060125346865F3C304346024
:1005C0000BF10C060125346865F3820434600BF1ED
:1005D000140500242C60039D192465434FEA8C0404
:1005E000B5FBF4F76424B7FBF4F426013509642461
:1005F0006C433C1B240104F232056424B5FBF4F483
:1006000004F00F0446EA04040BF10805A4B22C60C0
:10061000DDF800E009B0704700380140380342427D
:10062000E5090000C8000020FFFFFFFFCC0000200C
:10063000FFFFFFFFD0000020FFFFFFFFD4000020DE
:1006400000440040C403424221090000FFFFFFFFB5
:10065000FFFFFFFFFFFFFFFF00480040C8034242CB
:1006600075090000FFFFFFFFFFFFFFFFFFFFFFFF18
:10067000004C0040CC03424259090000FFFFFFFF3D
:10068000FFFFFFFFFFFFFFFF00500040D00342428B
:100690003D090000FFFFFFFFFFFFFFFFFFFFFFFF20
:1006A00081B000230360CB009BB242EA03030468DD
:1006B0009BB244EA03030360051D13141C462B6818
:1006C00064F382032B6000F21C0500242B6864F3A2
:1006D000CB232B600124036864F38613036001B00D
:1006E0007047FFFF81B0ADF800100146BDF8000073
:1006F0000B68C3F3C01202B9FAE70A1D106001B01B
:100700007047FFFF81B0CDF800E08CB21546774B03
:1007100000EA03031E461846FFF76CFDB4F1FF0F15
:100720000CD1734B9D4203D14FF033333360D9E08A
:10073000422D03D14FF044333360D3E04FF6FF73C3
:100740009C4214D16A4B9D4207D14FF03333336042
:10075000341D4FF033332360C4E0422D07D14FF0F6
:1007600044333360341D4FF044332360BAE000213A
:10077000002005F001030BB100211DE005F002038C
:1007800033B105F4C0730BB1082100E0042113E07C
:1007900005F0040333B105F020030BB1042100E0A0
:1007A000002109E005F0080333B105F020030BB187
:1007B0000C2100E00821FFE74E4B05EA03030BB1D3
:1007C000032009E005F400730BB1022004E005F4F6
:1007D00080630BB10120FFE705F00C030BB101436F
:1007E000FFE704F0FF039BB2002B3BD037680020EB
:1007F0001FFA84F832462E4608282CD24FF0010307
:1008000003FA00F408EA0403A34222D185004FF062
:100810000F03AB40DB4307EA030401FA05F344EAA4
:1008200003031D4606F48173B3F5817F05D102F2FF
:1008300014044FF001038340236006F08203822BEF
:1008400005D102F210044FF00103834023602F46CC
:10085000FFE7401CD0E717601FFA88F00F463146CB
:10086000164602E00F462946A0B2B0F1FF0F39D973
:10087000331DD3F800800022082A30D202F2080487
:100880004FF0010303FA04F400EA0403A34224D165
:1008900095004FF00F03AB40DB4308EA030807FA6B
:1008A00005F348EA030801F48173B3F5817F07D1AA
:1008B00006F2140502F208044FF00103A3402B6076
:1008C00001F08203822B07D106F2100502F2080420
:1008D0004FF00103A3402B60FFE7521CCCE7331D10
:1008E000C3F80080DDF800E001B0704700FCFFFFB6
:1008F000140008000008080081B0CDF800E0019D58
:100900002C4610B408B493B28AB201460348FFF7EC
:10091000A5FD02B0DDF800E001B0704700440040E2
:1009200081B0CDF800E081B20348FFF7DBFEDDF8CF
:1009300000E001B0704700BF0044004081B0CDF836
:1009400000E081B20348FFF7CDFEDDF800E001B022
:10095000704700BF0050004081B0CDF800E081B288
:100960000348FFF7BFFEDDF800E001B0704700BFAD
:10097000004C004081B0CDF800E081B20348FFF7A1
:10098000B1FEDDF800E001B0704700BF0048004054
:1009900081B0CDF800E081B20348FFF7C5FCDDF877
:1009A00000E001B0704700BF0030014081B0CDF8D9
:1009B00000E081B20348FFF7B7FCDDF800E001B0CA
:1009C000704700BF003C004081B0CDF800E081B22C
:1009D0000348FFF7A9FCDDF800E001B0704700BF55
:1009E0000038004081B0CDF800E081B20348FFF745
:1009F00079FEDDF800E001B0704700BF003801402B
:100A000081B0CDF800E0019D2C4610B408B493B23B
:100A10008AB201460348FFF721FD02B0DDF800E08D
:100A200001B070470038014081B0CDF800E081B2DC
:100A30000348FFF779FCDDF800E001B0704700BF24
:100A40000030014081B0CDF800E081B20348FFF7EB
:100A50006BFCDDF800E001B0704700BF003C0040D7
:100A600083B0CDF800E08DF8040002910B4C0C4BE4
:100A70001C600C4C0C4B1C60012464B20B4B1C60C2
:100A80001046FFF763FC029A9DF804100848FFF730
:100A900007FEDDF800E003B0704700BF450A000024
:100AA000C0000020AD090000C4000020BC03424289
:100AB000003C004081B0CDF800E04FF0420289B226
:100AC000FFF720FEDDF800E001B0704781B0CDF8FF
:100AD00000E0044A89B2FFF715FEDDF800E001B03E
:100AE000704700BF1400080081B0CDF800E0019D00
:100AF0002C4610B408B493B28AB201460348FFF7FB
:100B0000ADFC02B0DDF800E001B0704700480040E5
:100B100081B0CDF800E081B20348FFF705FCDDF8B5
:100B200000E001B0704700BF003800400149086094
:100B3000704700BF9401214201490860704700BF1F
:100B4000A801224201490860704700BFB8812242D3
:100B500001490860704700BF8C01224201490860CA
:100B6000704700BFA481224201490860704700BF5E
:100B7000A881224201490860704700BF80012142DC
:100B800001490860704700BF9C812142014908600B
:100B9000704700BF9881214201490860704700BF3B
:100BA000A081224201490860704700BFAC01224287
:100BB00001490860704700BF9881214201490860DF
:100BC000704700BF9481224200F208010A6804497C
:100BD0000A6000F218010A6802490A60704700BF03
:100BE000AC000020B4000020026803490A60011D27
:100BF0000A6802490A607047B8000020B00000206F
:100C000001490860704700BF9C812142014908608A
:100C1000704700BFB081224201490860704700BFA1
:100C2000B001224283B0CDF800E08AB2014690B212
:100C300083B2421E90B26BB10A78D4B2ADF8040010
:100C40000291A0B2054C2468A0470299BDF80400A7
:100C5000491CEDE7DDF800E003B07047B800002064
:100C600001490860704700BF98812242014908602D
:100C7000704700BFB081224201490860704700BF41
:100C8000B001224281B0CDF800E0094902B440F23F
:100C9000000340F2000240F20001FFF7B1FE01B094
:100CA000044A05490A600020DDF800E001B0704701
:100CB0008C190000E5090000A800002081B0CDF8E3
:100CC00000E0094902B440F2000340F2000240F2A1
:100CD0000001FFF711FE01B0044A05490A60002037
:100CE000DDF800E001B07047D01A000021090000D3
:100CF000A800002081B0CDF800E0094902B440F21C
:100D0000000340F2000240F20001FFF7F5FD01B0E0
:100D1000044A05490A600020DDF800E001B0704790
:100D2000D01A000021090000A800002081B0CDF8F1
:100D300000E0011D0A680168C8B21146034AFFF7C6
:100D40008FFE0020DDF800E001B07047F8190000C8
:100D500081B0CDF800E00178CCB2A0B2034C246899
:100D6000A0470020DDF800E001B07047A800002097
:100D700081B0CDF800E0011D0A680168C8B21146D3
:100D8000034AFFF76DFE0020DDF800E001B0704778
:100D9000F819000081B0CDF800E0A9E0012905D1E3
:100DA00040F210016548FFF785FE04E040F21001B3
:100DB0006248FFF78BFEBBE0012905D140F2040138
:100DC0005F48FFF777FE04E040F204015C48FFF75C
:100DD0007DFEADE0012905D142F200015948FFF73F
:100DE00069FE04E042F200015648FFF76FFE9FE003
:100DF000012905D140F200415148FFF75BFE04E0B4
:100E000040F200414E48FFF761FE91E0012905D113
:100E100040F600014A48FFF74DFE04E040F60001AD
:100E20004748FFF753FE83E0012905D141F2000155
:100E30004348FFF73FFE04E041F200014048FFF75E
:100E400045FE75E0012905D140F201013B48FFF75D
:100E500031FE04E040F201013848FFF737FE67E059
:100E6000012905D140F200413648FFF723FE04E096
:100E700040F200413348FFF729FE59E0012905D12E
:100E800040F200212F48FFF715FE04E040F2002158
:100E90002C48FFF71BFE4BE0012905D140F2001161
:100EA0002848FFF707FE04E040F200112548FFF74D
:100EB0000DFE3DE0012905D140F240012248FFF737
:100EC000F9FD04E040F240011F48FFF7FFFD2FE06D
:100ED000012905D140F280011B48FFF7EBFD04E03A
:100EE00040F280011848FFF7F1FD21E0012020E0E9
:100EF00000283FF453AF01283FF45EAF02283FF4CF
:100F000069AF03283FF474AF04283FF47FAF05288E
:100F10003FF48AAF06283FF495AF0728A0D00828F1
:100F2000ACD00928B8D00A28C4D00B28D0D0DDE72F
:100F30000020DDF800E001B0704700BF000801406C
:100F40000010014000140140000C014081B0CDF8B8
:100F500000E0A9E0012905D140F220016548FFF732
:100F6000A9FD04E040F220016248FFF7AFFDBBE0BD
:100F7000012905D140F208015F48FFF79BFD04E01D
:100F800040F208015C48FFF7A1FDADE0012905D161
:100F900044F200015948FFF78DFD04E044F20001DE
:100FA0005648FFF793FD9FE0012905D140F200412B
:100FB0005148FFF77FFD04E040F200414E48FFF743
:100FC00085FD91E0012905D140F600014A48FFF76F
:100FD00071FD04E040F600014748FFF777FD83E02C
:100FE000012905D141F200014348FFF763FD04E008
:100FF00041F200014048FFF769FD75E0012905D184
:1010000041F200013D48FFF755FD04E041F20001C7
:101010003A48FFF75BFD67E0012905D140F6000182
:101020003648FFF747FD04E040F600013348FFF77C
:101030004DFD59E0012905D140F240012F48FFF74D
:1010400039FD04E040F240012C48FFF73FFD4BE042
:10105000012905D140F220012848FFF72BFD04E0CB
:1010600040F220012548FFF731FD3DE0012905D17F
:1010700040F240012248FFF71DFD04E040F240012C
:101080001F48FFF723FD2FE0012905D140F2800121
:101090001B48FFF70FFD04E040F280011848FFF7FE
:1010A00015FD21E0012020E000283FF453AF012886
:1010B0003FF45EAF02283FF469AF03283FF474AFFA
:1010C00004283FF47FAF05283FF48AAF06283FF499
:1010D00095AF0728A0D00828ACD00928B8D00A2896
:1010E000C4D00B28D0D0DDE70020DDF800E001B04F
:1010F000704700BF0008014000100140001401408B
:10110000000C014001490860704700BFB4812242D1
:1011100001490860704700BF880122420149086008
:10112000704700BFAC01224201490860704700BF10
:10113000A801224283B0CDF800E0ADF8081001907C
:10114000BDF80830BDF80820521EADF808204BB19C
:101150000020064C2468A047019A1070019A521C86
:101160000192EDE7DDF800E003B07047B000002029
:1011700084B0CDF800E0ADF80C2001900291BDF8EC
:101180000C40BDF80C305B1EADF80C307CB1019BFF
:101190001B78DCB2A0B2084C2468A047029B1870F0
:1011A000029B5B1C0293019B5B1C0193E7E7DDF84C
:1011B00000E004B0704700BFB000002001490860A3
:1011C000704700BF9001214281B0CDF800E009498D
:1011D00002B440F2000340F2000240F20001FFF7C7
:1011E00083FC01B0044A05490A600020DDF800E0F4
:1011F00001B07047641A000075090000A8000020C3
:1012000084B0CDF800E001AC2070631C0A0C02F041
:10121000FF02D2B21A70A31C0A0A02F0FF02D2B275
:101220001A70E31C01F0FF02D2B21A7000200C4CBD
:101230002468A0470DF1090301AA194610460522AA
:10124000FFF796FF0120064C2468A0470DF1090224
:10125000121D1278D0B2DDF800E004B0704700BF74
:10126000AC00002084B0CDF800E08DF804000291BD
:101270008DF80C2000200A4C2468A04701AB012106
:101280001846FFF7CFFC9DF80C100298FFF752FFAD
:101290000120034C2468A047DDF800E004B070474B
:1012A000AC00002083B0CDF800E001AD28706C1CCC
:1012B0000B0C03F0FF03DBB22370AC1C0B0A03F032
:1012C000FF03DBB22370EC1C01F0FF03DBB22370E1
:1012D0002B1D1A700020084C2468A04701AB052183
:1012E0001846FFF79FFC0120034C2468A047DDF857
:1012F00000E003B0704700BFAC00002082B0ADF842
:10130000040001AD6A1C12781309DBB2114AD2182D
:1013100012780A704C1C6A1C127802F00F03DBB2C0
:101320000C4AD218127822708C1C2A781309DBB26E
:10133000084AD21812782270CC1C2A7802F00F03C7
:10134000DBB2044AD218127822700B1D00221A70E8
:1013500002B07047CB1B000044F67F77C0F2120743
:101360007F1EFDD100BF00BF00BF00BF00BF7047A0
:1013700082B0CDF800E001A908700020074C246875
:10138000A04701A908460121FFF74CFC0120034CAE
:101390002468A047DDF800E002B07047AC000020F0
:1013A00081B0CDF800E011E00846FFF70DFF16E030
:1013B0000846FFF79FFC12E00846FFF763FC0EE0CB
:1013C0000846FFF77BFC0AE0012008E00028EBD08C
:1013D0000128EDD02028EFD03028F1D0F4E7DDF857
:1013E00000E001B07047FFFF81B0CDF800E08B4610
:1013F00009E05846FFF7BCFC0AE05846FFF796FCA8
:1014000006E0012004E00028F3D00128F5D0F8E739
:10141000DDF800E001B0704781B0CDF800E05FFA80
:1014200081F95FFA82FA0FE05FFA8AF15FFA89F0D8
:10143000FFF7B0FC0DE05FFA8AF15FFA89F0FFF781
:1014400085FD06E0012004E00028EDD00128F2D05F
:10145000F8E7DDF800E001B07047FFFF83B0CDF89A
:1014600000E0024610460D228DF808200A228DF871
:1014700009201FE0FFF76CFC23E002782AB10190FD
:10148000FFF766FC0198401CF7E71AE002782AB1E2
:101490000190FFF75DFC0198401CF7E702AA104697
:1014A000FFF756FC0DF109021046FFF751FC08E06A
:1014B000062007E00029DDD00129DED00229E5D091
:1014C000F6E70020DDF800E003B0704781B0CDF80A
:1014D00000E003460846FFF787FB1846FFF774FB5A
:1014E0000120054C2468A0470120044C2468A04733
:1014F000DDF800E001B07047AC000020B40000202F
:1015000081B04FF000094FF0000CBDEB0A0F04DC76
:10151000BDEB0B0F01DBD446EA464BF8049BBBEB5B
:101520000A0FFAD1BCEB0A0F05DDE246D9F800B08C
:101530000BF1040BF1E701B07047FFFF81B01548D4
:10154000006840F00101134801601349134801602D
:1015500010480168124801400E4801600D480168BA
:101560006FF4802001400B4801600C4801686FF463
:10157000FE00014009480160064801686FF0A05074
:101580000140044801604FF000010648016001B0CD
:10159000704700BF001002400000FFF0041002403E
:1015A000FFFFF6FE2C10024081B01CF8019B0BF8E7
:1015B000019BBBEB0A0FF8D101B07047020406088B
:1015C00081B0CDF800E045480121FFF747FF062034
:1015D000FFF7CEFE092242499F20FFF743FE00217C
:1015E000404801703F480078092816D23D480178EC
:1015F0003B48401800783C49FFF780FE3B480121FA
:10160000FFF72CFF01213848FFF728FFFFF7A4FE62
:1016100034490878401C0870E4E735480221FFF798
:101620001DFF34480221FFF719FF0620FFF7A0FE37
:1016300000212C4801702B48007806281AD2062079
:10164000FFF796FE274801782B4840180078C1B272
:101650002A480068CAB201460220FFF723FE274944
:101660000868401C0860FFF777FE1E490878401C98
:101670000870E0E755212148016021480121FFF76A
:10168000EDFE00211748017016480078062816D292
:101690001A48006801460320FFF7B2FD1949087097
:1016A00016490868401C086001211648FFF7D6FE5D
:1016B000FFF752FE0B490878401C0870E4E748F237
:1016C000FF67C0F2933700BF00BF7F1EFDD100BF90
:1016D00000BF00BFDDF800E001B07047140000203B
:1016E00026000020850000203A0000206C00002029
:1016F00070000020720000208C0000208800002074
:10170000930000208600002081B0CDF800E004495D
:101710000448FFF7DBFEDDF800E001B0704700BFD2
:10172000E41B00003C1B000081B0CDF800E000226B
:1017300002210020FFF770FE002206210020FFF7A3
:101740006BFE0E4801460020FFF74EFE4FF4E131DC
:101750002020FFF725FE0A480221FFF77FFE44F60E
:101760007F77C0F2120700BF00BF7F1EFDD100BF10
:1017700000BF00BFDDF800E001B07047DC1B0000D7
:101780000000002081B002490248016001B07047AA
:1017900040190100BC00002081B0FEE701B0704795
:1017A00000F00EF800F070FAFFF7ECFF00F01EFA00
:1017B000FFF7BAFFFFF7A8FFFFF702FFFCE7FEE71E
:1017C00081B0CDF800E0464A464B474C47494BF6BE
:1017D0008030814206D94648006840F00201444802
:1017E000016011E045F6C050814206D940480068CA
:1017F00040F001013E48016006E03D4801686FF09D
:10180000070001403A480160FFF798FE394803603D
:1018100039480460394802EA00013948016002F0A1
:10182000010040B119463648006800F00200002867
:1018300000D1F8E700E0194602F4803040B10B46D1
:101840002F48006800F40030002800D1F8E700E0DD
:101850000B4602F0805068B12948006840F0805182
:10186000274801602648006800F00050002800D199
:10187000F8E7FFE702F0806078B12148006840F0A7
:1018800080611F48016011461A461D48006800F03B
:101890000060002800D1F8E701E011461A4601F087
:1018A000807070B11648006840F080711448016083
:1018B00011461348006800F0007000B9F9E70A46C5
:1018C000FFE70C48006800F00C01900000F00C00ED
:1018D000814200D0F5E7DDF800E001B0704700BFBD
:1018E0008100010502841D00440601004019010029
:1018F00000200240041002402C100240FFFF0F00A5
:10190000001002402D2D2D2053797374656D2069D0
:101910006E6974202D2D2D0052656164204465761A
:10192000696365204944203A20000000000000005F
:1019300000000000000000000000000000000000A7
:101940000000000000000000000000000000000097
:101950000000000000000000000000000000000087
:101960000000000000000000000000000000000077
:101970002030780020005772697465204D696B72C1
:101980006F4520646174612E00FFFFFF09000000B5
:101990000A000000FFFFFFFF000000000000000041
:1019A0000000000000000000000000000000000037
:1019B0000000000000000000000000000000000027
:1019C00018080000180000000000000000000000DF
:1019D0000000000000000000000000000000000007
:1019E00000000000000000000000000000000000F7
:1019F00000000000040000002A0000002B0000008E
:101A00002C000000FFFFFFFF0000000000000000AE
:101A100000000000000000000000000000000000C6
:101A20000000000000000000000000001808000096
:101A30001808000018080000000000000000000066
:101A40000000000000000000000000000000000096
:101A50000000000000000000000000000000000086
:101A6000001120083800000039000000FFFFFFFFD0
:101A70000000000000000000000000000000000066
:101A80000000000000000000000000000000000056
:101A9000000000000000000018080000180000000E
:101AA0000000000000000000000000000000000036
:101AB0000000000000000000000000000000000026
:101AC00000000000000000000000000030001408CA
:101AD0003500000036000000FFFFFFFF000000009F
:101AE00000000000000000000000000000000000F6
:101AF00000000000000000000000000000000000E6
:101B0000000000001808000018000000000000009D
:101B100000000000000000000000000000000000C5
:101B200000000000000000000000000000000000B5
:101B3000000000000000000008000008BD110000C7
:101B40001111000005110000291100001D110000F5
:101B5000790C0000750B0000690B00005D0B0000A4
:101B6000990B00008D0B0000810B0000FFFFFFFFB1
:101B7000FFFFFFFFFFFFFFFFFFFFFFFFFFFFFFFF75
:101B8000FFFFFFFFFFFFFFFFFFFFFFFFFFFFFFFF65
:101B9000FFFFFFFFFFFFFFFFFFFFFFFF55000000FC
:101BA0004D696B726F450052656164206D656D6FA4
:101BB00072792064617461203A2000000000000105
:101BC00002030401020304060708093031323334EA
:101BD0003536373839414243444546FF010000005D
:101BE00004030000AD090000450A000000B5DFF85D
:101BF00024B0DFF824A0DFF824C0FFF7D5FCDFF81D
:101C000020B0DFF820A0DFF820C0FFF7CDFC00BD3A
:101C1000704700BF0000002085000020041900006C
:101C200088000020A70000209C1B0000FFFFFFFF92
:101C3000FFFFFFFFFFFFFFFFFFFFFFFFFFFFFFFFB4
:101C4000FFFFFFFFFFFFFFFFFFFFFFFFFFFFFFFFA4
:101C5000FFFFFFFFFFFFFFFFFFFFFFFFFFFFFFFF94
:101C6000FFFFFFFFFFFFFFFFFFFFFFFFFFFFFFFF84
:101C7000FFFFFFFFFFFFFFFFFFFFFFFFFFFFFFFF74
:101C8000FFFFFFFFFFFFFFFF00B5DFF810B0DFF839
:101C900010A0FFF735FC00BD704700BF000000201A
:101CA000D8000020FFFFFFFFFFFFFFFFFFFFFFFF48
:00000001FF
